{
  "_format": "hh-sol-artifact-1",
  "contractName": "EnergyVault",
  "sourceName": "contracts/EnergyVault.sol",
  "abi": [
    {
      "inputs": [
        {
          "internalType": "address",
          "name": "_token",
          "type": "address"
        },
        {
          "internalType": "address",
          "name": "_treasury",
          "type": "address"
        }
      ],
      "stateMutability": "nonpayable",
      "type": "constructor"
    },
    {
      "inputs": [
        {
          "internalType": "address",
          "name": "token",
          "type": "address"
        }
      ],
      "name": "SafeERC20FailedOperation",
      "type": "error"
    },
    {
      "anonymous": false,
      "inputs": [
        {
          "indexed": true,
          "internalType": "address",
          "name": "user",
          "type": "address"
        },
        {
          "indexed": false,
          "internalType": "uint256",
          "name": "tokenAmount",
          "type": "uint256"
        },
        {
          "indexed": false,
          "internalType": "uint256",
          "name": "energyCredit",
          "type": "uint256"
        }
      ],
      "name": "EnergyCharged",
      "type": "event"
    },
    {
      "inputs": [],
      "name": "CREDIT_PER_TOKEN",
      "outputs": [
        {
          "internalType": "uint256",
          "name": "",
          "type": "uint256"
        }
      ],
      "stateMutability": "view",
      "type": "function"
    },
    {
      "inputs": [
        {
          "internalType": "uint256",
          "name": "tokenAmount",
          "type": "uint256"
        }
      ],
      "name": "charge",
      "outputs": [],
      "stateMutability": "nonpayable",
      "type": "function"
    },
    {
      "inputs": [
        {
          "internalType": "uint256",
          "name": "tokenAmount",
          "type": "uint256"
        }
      ],
      "name": "quoteEnergyCredit",
      "outputs": [
        {
          "internalType": "uint256",
          "name": "",
          "type": "uint256"
        }
      ],
      "stateMutability": "pure",
      "type": "function"
    },
    {
      "inputs": [],
      "name": "token",
      "outputs": [
        {
          "internalType": "contract IERC20",
          "name": "",
          "type": "address"
        }
      ],
      "stateMutability": "view",
      "type": "function"
    },
    {
      "inputs": [],
      "name": "treasury",
      "outputs": [
        {
          "internalType": "address",
          "name": "",
          "type": "address"
        }
      ],
      "stateMutability": "view",
      "type": "function"
    }
  ],
  "bytecode": "0x60c060405234801561001057600080fd5b5060405162000a3a38038062000a3a833981810160405281019061003491906101e4565b600073ffffffffffffffffffffffffffffffffffffffff168273ffffffffffffffffffffffffffffffffffffffff16036100a3576040517f08c379a000000000000000000000000000000000000000000000000000000000815260040161009a90610281565b60405180910390fd5b600073ffffffffffffffffffffffffffffffffffffffff168173ffffffffffffffffffffffffffffffffffffffff1603610112576040517f08c379a0000000000000000000000000000000000000000000000000000000008152600401610109906102ed565b60405180910390fd5b8173ffffffffffffffffffffffffffffffffffffffff1660808173ffffffffffffffffffffffffffffffffffffffff16815250508073ffffffffffffffffffffffffffffffffffffffff1660a08173ffffffffffffffffffffffffffffffffffffffff1681525050505061030d565b600080fd5b600073ffffffffffffffffffffffffffffffffffffffff82169050919050565b60006101b182610186565b9050919050565b6101c1816101a6565b81146101cc57600080fd5b50565b6000815190506101de816101b8565b92915050565b600080604083850312156101fb576101fa610181565b5b6000610209858286016101cf565b925050602061021a858286016101cf565b9150509250929050565b600082825260208201905092915050565b7f494e56414c49445f544f4b454e00000000000000000000000000000000000000600082015250565b600061026b600d83610224565b915061027682610235565b602082019050919050565b6000602082019050818103600083015261029a8161025e565b9050919050565b7f494e56414c49445f545245415355525900000000000000000000000000000000600082015250565b60006102d7601083610224565b91506102e2826102a1565b602082019050919050565b60006020820190508181036000830152610306816102ca565b9050919050565b60805160a0516106f9620003416000396000818161013201526101aa0152600081816101cc015261026701526106f96000f3fe608060405234801561001057600080fd5b50600436106100575760003560e01c806301ed243d1461005c5780630f09b59b1461007a57806361d027b3146100aa578063e457e1e5146100c8578063fc0c546a146100e4575b600080fd5b610064610102565b60405161007191906103c6565b60405180910390f35b610094600480360381019061008f9190610412565b610107565b6040516100a191906103c6565b60405180910390f35b6100b2610130565b6040516100bf9190610480565b60405180910390f35b6100e260048036038101906100dd9190610412565b610154565b005b6100ec610265565b6040516100f991906104fa565b60405180910390f35b600a81565b6000670de0b6b3a7640000600a8361011f9190610544565b61012991906105b5565b9050919050565b7f000000000000000000000000000000000000000000000000000000000000000081565b60008111610197576040517f08c379a000000000000000000000000000000000000000000000000000000000815260040161018e90610643565b60405180910390fd5b60006101a282610107565b9050610211337f0000000000000000000000000000000000000000000000000000000000000000847f000000000000000000000000000000000000000000000000000000000000000073ffffffffffffffffffffffffffffffffffffffff16610289909392919063ffffffff16565b3373ffffffffffffffffffffffffffffffffffffffff167f9b6b6d9f597a255a3128d473d198811947a35118e5c67cc5e45f0981251207888383604051610259929190610663565b60405180910390a25050565b7f000000000000000000000000000000000000000000000000000000000000000081565b610305848573ffffffffffffffffffffffffffffffffffffffff166323b872dd8686866040516024016102be9392919061068c565b604051602081830303815290604052915060e01b6020820180517bffffffffffffffffffffffffffffffffffffffffffffffffffffffff838183161783525050505061030b565b50505050565b600080602060008451602086016000885af18061032e576040513d6000823e3d81fd5b3d925060005191505060008214610349576001811415610365565b60008473ffffffffffffffffffffffffffffffffffffffff163b145b156103a757836040517f5274afe700000000000000000000000000000000000000000000000000000000815260040161039e9190610480565b60405180910390fd5b50505050565b6000819050919050565b6103c0816103ad565b82525050565b60006020820190506103db60008301846103b7565b92915050565b600080fd5b6103ef816103ad565b81146103fa57600080fd5b50565b60008135905061040c816103e6565b92915050565b600060208284031215610428576104276103e1565b5b6000610436848285016103fd565b91505092915050565b600073ffffffffffffffffffffffffffffffffffffffff82169050919050565b600061046a8261043f565b9050919050565b61047a8161045f565b82525050565b60006020820190506104956000830184610471565b92915050565b6000819050919050565b60006104c06104bb6104b68461043f565b61049b565b61043f565b9050919050565b60006104d2826104a5565b9050919050565b60006104e4826104c7565b9050919050565b6104f4816104d9565b82525050565b600060208201905061050f60008301846104eb565b92915050565b7f4e487b7100000000000000000000000000000000000000000000000000000000600052601160045260246000fd5b600061054f826103ad565b915061055a836103ad565b9250828202610568816103ad565b9150828204841483151761057f5761057e610515565b5b5092915050565b7f4e487b7100000000000000000000000000000000000000000000000000000000600052601260045260246000fd5b60006105c0826103ad565b91506105cb836103ad565b9250826105db576105da610586565b5b828204905092915050565b600082825260208201905092915050565b7f494e56414c49445f414d4f554e54000000000000000000000000000000000000600082015250565b600061062d600e836105e6565b9150610638826105f7565b602082019050919050565b6000602082019050818103600083015261065c81610620565b9050919050565b600060408201905061067860008301856103b7565b61068560208301846103b7565b9392505050565b60006060820190506106a16000830186610471565b6106ae6020830185610471565b6106bb60408301846103b7565b94935050505056fea26469706673582212207820c3d61dd8b468012c7534fc751ca295fff06bf3a2138cff09a40cb76180f164736f6c63430008140033",
  "linkReferences": {},
  "deployedLinkReferences": {}
}